S01700004763634170706C69636174696F6E312E737265635B
S11300000C942A000C9434000C9434000C943400A6
S11300100C9434000C9434000C9434000C9434008C
S11300200C9434000C9434000C9434000C9434007C
S11300300C9434000C9434000C9434000C9434006C
S11300400C9434000C9434000C9434000C9434005C
S11300500C94340011241FBECFE5D4E0DEBFCDBF25
S11300600E945A000C9411010C94000083E389B996
S113007010BC88E18AB986E880BD08955F9BFECFF5
S11300808CB1089512BE87B3886087BB8AE683BFAC
S113009008951CBC1DBC81B3806281BB81E88FBD07
S11300A08AE08EBD089514BC81B3806881BB8AE662
S11300B085BD0895CF93DF93CDB7DEB72C970FB6E8
S11300C0F894DEBF0FBECDBF84B38FEF84BB85B37E
S11300D015BA0E9436000E9442000E9449000E9404
S11300E0530010E00AC00E943E00E1E0F0E0EC0F93
S11300F0FD1FE10FF11D80831F5F1C30A0F380E022
S11301000AC0E1E0F0E0EC0FFD1FE80FF11D908163
S1130110905390838F5F8C30A0F33A818B811C8144
S113012024E6982F990F892F880F880F890F329F03
S1130130800D1124180F3E818F814885982F990FC7
S1130140892F880F880F890F329F800D1124480F43
S11301505A858B853C85982F990F892F880F880F96
S1130160890F529F800D1124380F2FEF84E39CE0F8
S1130170215080409040E1F700C000002FEF219F04
S1130180C0011124E4E6F0E0BF010E94E9006CBF65
S113019085B38D7F85BB85B3816085BB239FC001FB
S11301A01124BF010E94E90063BD85B3877F85BB2D
S11301B085B3846085BB249FC0011124BF010E94C4
S11301C0E9006ABD85B38F7D85BB85B3806185BB3E
S11301D0CCCF97FB072E16F4009407D077FD09D0F7
S11301E00E94FD0007FC05D03EF4909581959F4F39
S11301F00895709561957F4F0895AA1BBB1B51E12B
S113020007C0AA1FBB1FA617B70710F0A61BB70B82
S1130210881F991F5A95A9F780959095BC01CD0127
S10902200895F894FFCFDD
S9030000FC
